:1000000080313E280000203085000F308400000839
:10001000031918280530F800F701F70B0D28F80B25
:100020000C282E30F700F70B13281628800B0A280F
:100030000800F801F901F701FA013208031D23282D
:10004000310803193D281030B3000310AF0DB00D77
:10005000F70DFA0D32087A02031D302831087702B5
:10006000031C39283108F702031CFA033208FA028C
:100070000314F80DF90DB30B252808007A30210080
:1000800099002000AB01AA01AD01AC0123008C0155
:100090008E01220092019101940193017A30210096
:1000A00099001E169E161E139E171D141E109E10DC
:1000B000003023008C0006308E000030F800073836
:1000C00020009C007D309B0021008E12C0302C004F
:1000D00093005D309200C0309100C8302000AF0026
:1000E0000320AE012E08043C031CB2281430F80093
:1000F00021001D08833978049D0001302000AF00E5
:10010000032021009D149D1883281C08FA001B0859
:100110002000A6007A08A7002608AA072708AB3DFA
:100120000130AF0003201830F80021001D0883398A
:1001300078049D0001302000AF00032021009D14B1
:100140009D18A0281C08FA001B082000A8007A08A7
:10015000A9002808AC072908AD3D0130AF000320F5
:10016000AE0A72282B08B0002A08AF00B201053091
:10017000B10019207908A7007808A6002D08B00062
:100180002C08AF00B2010530B10019207908A90090
:100190007808A800AB01AA01AD01AC01C830AF00DE
:1001A00003201430F80021001D08833978049D00D5
:1001B0002130F700F70BDA289D149D18DD281C0864
:1001C000FA001B082000A2007A08A3001830F800EB
:1001D00021001D08833978049D002130F700F70BBA
:1001E000EF289D149D18F2281C08FA001B08200017
:1001F000A4007A08A50003302607F8000030273D48
:10020000FA007A082302031C7229031D0B29220815
:100210007802031872291430F80021001D08833970
:1002200078049D002130F700F70B142903302000DB
:100230002607F8000030273DFA007A082302031C45
:100240007129031D2729220878020318712921002A
:100250009D149D1829291C08FA001B082000A200E3
:100260007A08A30091302202A0000030233BA100B5
:100270002130F700F70B3A292108013C031C4A29D9
:10028000031D46292008763C031C4A290130A100A1
:100290007730A0002108003C03185929FF3A031DBC
:1002A00055292008F43C031859290130A100F430E5
:1002B000A0002108F9002008F800F80DF90DF80D4C
:1002C000F90DF80DF90DF80DF90DF80DF90DF80D02
:1002D000F90D79082C009200780891002100162968
:1002E0002000ED2903302807F8000030293DFA00EE
:1002F0007A082502031CE929031D822924087802B3
:100300000318E9291830F80021001D088339780402
:100310009D002130F700F70B8B29033020002807C0
:10032000F8000030293DFA007A082502031CE8296C
:10033000031D9E29240878020318E82921009D1432
:100340009D18A0291C08FA001B082000A4007A08A8
:10035000A50091302402A0000030253BA1002130EF
:10036000F700F70BB1292108013C031CC129031D2B
:10037000BD292008763C031CC1290130A10077303B
:10038000A0002108003C0318D029FF3A031DCC2906
:100390002008A13C0318D0290130A100A130A00001
:1003A0002108F9002008F800F80DF90DF80DF90DF5
:1003B000F80DF90DF80DF90DF80DF90DF80DF90D11
:1003C00079082C0092007808910021008D292000E6
:1003D000ED290130A1007730A0002108F9002008A4
:1003E000F800F80DF90DF80DF90DF80DF90DF80DEF
:1003F000F90DF80DF90DF80DF90D79082C009200A2
:0A040000780891002000D128630065
:020000040001F9
:04000E00C43FFF1FCD
:00000001FF
;PIC16F1503
;CRC=94F5  CREATED="01-feb.-23 16:42"
