:040000000128642F40
:10069C0076340134FA340034F43401341630210049
:1006AC00970008007830210099002200960108007C
:1006BC00FE0012001E00FE0B5F2B0034C0302C001D
:1006CC0093005D3092008030910008007D30200056
:1006DC009B009A01911007309C0008001E340234D4
:1006EC001E340234903402349034023480302100B1
:1006FC009E009F019B019C0101309D0008008331ED
:10070C0098238331833158238331833154238331AC
:10071C0083316423833183316C23833183317C2394
:10072C008331080022008C018E013F3021008C00A7
:10073C001F308E000F3023008E0017308C002400E9
:10074C008C012100951722009D0108007108F3000F
:10075C007008F200F336F20CF336F20C72082C002F
:10076C00920070080339F2000530F235FF3E031D8C
:10077C00BB2B72359100080000308B1B0130F2004E
:10078C008B13700823009100710892001513151437
:10079C0000000000720C031C8B1303188B17230032
:1007AC001408F1001308F0000800F3007308F200BD
:1007BC00F20DF20D21001D087206833972069D00A0
:1007CC001D140630890BE82B003221009D149D1856
:1007DC00F02BF12BED2B1C08F1001B08F00008008E
:1007EC0000308B1B0130F2008B137008230091003A
:1007FC007108920015131516151555309600AA3070
:10080C00960095140000000023001511720C031CB7
:10081C008B1303188B170800FF343F34FF343F341D
:10082C00FF343F34FF343F34FF343F34FF343F3424
:10083C00FF343F34FF343F34FF343F34FF343F3414
:10084C00FF343F34FF343F34FF343F34FF343F3404
:10085C00FF343F34FF343F34A03086000030870033
:10086C0020308400003085002030FD0016001A0076
:10087C00FD0B3C2C2000A001A1015708A300560839
:10088C00A2005308A5005208A4005508A70054085C
:10089C00A6005108A9005008A8008030F3000730CA
:1008AC00F4002030F5008431D62484310800F501A1
:1008BC00F601700871040319642C652C942CF70153
:1008CC00F70A712C0130F035F10D890B692C0130D0
:1008DC00F4007408F707F11F742C752C682C013088
:1008EC00F535F60D890B762C71087302031D802CDF
:1008FC0070087202031C832C842C892C7008F20261
:10090C007108F33B75140130F136F00C890B8A2C0D
:10091C000130F702031D932C942C752C7608F100F2
:10092C007508F00008008030F0000730F1008331CA
:10093C00C2238431701CA32CA42CA52CD52C813063
:10094C00F0000730F1008331C2238431710820009C
:10095C00D7007008D6008230F0000730F1008331E8
:10096C00C223843171082000D3007008D200833078
:10097C00F0000730F1008331C2238431710820006C
:10098C00D5007008D4008430F0000730F1008331BA
:10099C00C223843171082000D1007008D0000800F7
:1009AC00F0307305F90007307405FA0000308B1B2A
:1009BC000130FB007A087406031DE62C79087306D7
:1009CC000319E92CEA2CEB2C342D8B137408F10051
:1009DC007308F0008331F6238431230015131515A9
:1009EC009516FC01730823009100740892007C3565
:1009FC007507F600760886008701010893007C35A0
:100A0C007507F600760886008701403FF700413FE6
:100A1C00F800780894000F307C06031D162D172D56
:100A2C00182D951255309600AA309600951400009A
:100A3C0000000130F3070030F43D0130F600760879
:100A4C00FC0710307C02031C2C2D2D2DF82C2300C0
:100A5C0015117B0C031C8B1303188B1708008331A7
:100A6C008523853184319924853105302000C100DE
:100A7C000F30C000F130890B412DC00B412DC10B43
:100A8C00412D05308331DB23853171082000CB00EB
:100A9C007008CA0006308331DB23853171082000D1
:100AAC00CD007008CC0002304B02403003194A02D2
:100ABC00031C612D622D8F2E02304D024030031924
:100ACC004C02031C6A2D6B2D8F2EC601C701C80169
:100ADC00C901C201C30105308331DB2385317008A4
:100AEC002000C6077108C73D06308331DB238531F2
:100AFC0070082000C8077108C93D0130C2070030DA
:100B0C00C33D4308803AC00080304002031D902D45
:100B1C0005304202031C932D942D712D0530F000ED
:100B2C000030F10020004708F3004608F200843141
:100B3C005D24853171082000D7007008D60005307F
:100B4C00F0000030F1004908F3004808F20084314D
:100B5C005D24853171082000D5007008D400FA306E
:100B6C00F0000030F1008331AC23853129302000B6
:100B7C00C1009630C0007F30890BC22DC00BC22D36
:100B8C00C10BC22DF430F0000130F1008331AC23E5
:100B9C00853129302000C1009630C0007F30890B90
:100BAC00D52DC00BD52DC10BD52D7630F0000130D5
:100BBC00F1008331AC2385312000C601C701C80187
:100BCC00C901FA2D05308331DB23853171082000F2
:100BDC00CB007008CA0006308331DB2385317108E5
:100BEC002000CD007008CC0002304B0227300319D6
:100BFC004A020318022E032EE82D02304D02273034
:100C0C0003194C0203180B2E0C2EE82D2930200052
:100C1C00C1009630C0007F30890B122EC00B122EF3
:100C2C00C10B122E2000C401C50105308331DB231A
:100C3C00853170082000C6077108C73D0630833126
:100C4C00DB23853170082000C8077108C93D0130CD
:100C5C00C4070030C53D4508803AC00080304002D2
:100C6C00031D3A2E05304402031C3D2E3E2E1B2E36
:100C7C000530F0000030F10020004708F300460872
:100C8C00F20084315D24853171082000D300700896
:100C9C00D2000530F0000030F1004908F30048089C
:100CAC00F20084315D24853171082000D100700878
:100CBC00D000FA30F0000030F1008331AC238531E4
:100CCC0029302000C1009630C0007F30890B6C2E7B
:100CDC00C00B6C2EC10B6C2EF430F0000130F10007
:100CEC008331AC23853129302000C1009630C000FF
:100CFC007F30890B7F2EC00B7F2EC10B7F2E763061
:100D0C00F0000130F1008331AC2385318431322481
:100D1C00853105302000C1000F30C000F130890B47
:100D2C00952EC00B952EC10B952E05308331DB23F0
:100D3C00853171082000CB007008CA000630833161
:100D4C00DB23853171082000CD007008CC005208DF
:100D5C000A3EC0000030533DC1004B084102031D48
:100D6C00B92E4A0840020318BC2EBD2E042FF22EB9
:100D7C0005308331DB23853171082000CB007008EE
:100D8C00CA007F30C0000330C1004A084002CE00C8
:100D9C004B08413BCF0000304F02FA3003194E0292
:100DAC000318D92EDA2EDE2EFA30CE000030CF000A
:100DBC0001304F02773003194E02031CE62EE72E4A
:100DCC00EB2E7630CE000130CF004F08F1004E08EC
:100DDC00F0008331AC238531200052080A3EC0005C
:100DEC000030533DC1004B084102031DFF2E4A0841
:100DFC004002031C022F032FBE2E5B2F50080A3E0D
:100E0C00C0000030513DC1004D084102031D102FA0
:100E1C004C0840020318132F142F572F452F063060
:100E2C008331DB23853171082000CD007008CC00A4
:100E3C004C086F3ECE00FF304D3DCF0001304F02CD
:100E4C00763003194E0203182C2F2D2F312F7630AC
:100E5C00CE000130CF0001304F02F53003194E02A5
:100E6C00031C392F3A2F3E2FF430CE000130CF0027
:100E7C004F08F1004E08F0008331AC23853120007F
:100E8C0050080A3EC0000030513DC1004D084102DF
:100E9C00031D522F4C084002031C552F562F152FA3
:100EAC005B2F7730CE000130CF004F08F1004E0899
:100EBC00F0008331AC2385319B2E012874308400E3
:100ECC008330850050308600003087000830833135
:100EDC005E2387311230840084308500A030860078
:100EEC0000308700203083315E238731D801D9014F
:040EFC002000352D70
:020000040001F9
:08000000FF3FFF3FFF3FFF3F00
:04000E00E43FFF3F8D
:00000001FF
