:040000000128FC2FA8
:100BD20077340134FA340034F4340134163021000D
:100BE2009700080078302100990022009601080041
:100BF200C0302C0093003F309200C03091000800BA
:100C02007F3020009B009A01911007309C00080061
:100C1200803021009E009F019B019C0101309D00BC
:100C220008008631252686318531F32586318531C6
:100C3200EF2586318531F9258631863101268631C7
:100C4200863109268631080022008C018E013F3050
:100C520021008C001F308E000F3023008E001730D1
:100C62008C0024008C012100951722009D010800B0
:100C72007108F3007008F200F336F20CF336F20C4E
:100C820072082C00920070080339F2000530F23528
:100C9200FF3E031D482E723591000800F3007308D1
:100CA200F200F20DF20D21001D0872068339720660
:100CB2009D001D140630890B5C2E003221009D140C
:100CC2009D18642E652E612E1C08F1001B08F00091
:100CD2000800F501F601700871040319712E722ED5
:100CE200A12EF701F70A7E2E0130F035F10D890BA6
:100CF200762E0130F4007408F707F11F812E822E40
:100D0200752E0130F535F60D890B832E71087302AD
:100D1200031D8D2E70087202031C902E912E962EAA
:100D22007008F2027108F33B75140130F136F00CD1
:100D3200890B972E0130F702031DA02EA12E822EC1
:100D42007608F1007508F000080086311226863117
:100D52000530F9000F30F800F130890BAE2EF80B98
:100D6200AE2EF90BAE2E00002000A201A301A401B9
:100D7200A501A001A101053086314F2686317108F7
:100D82002000AB007008AA002A082207A2002B0844
:100D9200233DA3000630F8003030890BCE2EF80B2D
:100DA200CE2E0032063086314F2686317108200061
:100DB200AD007008AC002C082407A4002D08253DC6
:100DC200A5000630F8003030890BE52EF80BE52E31
:100DD200003201302000A0070030A13D2108803AF6
:100DE200F80080307802031DF82E05302002031C23
:100DF200FB2EFC2EBC2E0530F0000030F10020004E
:100E02002308F3002208F20086316A26863171082F
:100E12002000AB007008AA000530F0000030F1009D
:100E22002508F3002408F20086316A26863171080B
:100E32002000AD007008AC000530F9000F30F8005A
:100E4200F130890B222FF80B222FF90B222F0000F1
:100E5200053086314F26863171082000A7007008C0
:100E6200A600063086314F26863171082000A9007F
:100E72007008A8002A08033EF80000302B3DF90054
:100E820027087902031D472F2608780203184A2FE4
:100E92004B2F972F852F053086314F2686317108CB
:100EA2002000A7007008A6007F30F8000330F90088
:100EB20026087802AE002708793BAF002130890B63
:100EC200602F0000003020002F02FA3003192E029A
:100ED20003186C2F6D2F712FFA30AE000030AF0067
:100EE20001302F02783003192E02031C792F7A2F3A
:100EF2007E2F7730AE000130AF002F08F1002E08B0
:100F0200F00086313926863120002A080A3EF80090
:100F120000302B3DF90027087902031D922F260885
:100F22007802031C952F962F4C2FF32F2C080A3E84
:100F3200F80000302D3DF90029087902031DA32F86
:100F4200280878020318A62FA72FEF2FDD2F0630CF
:100F520086314F26863171082000A9007008A8004A
:100F620028086F3EAE00FF30293DAF002130890BCB
:100F7200B82F0000013020002F02773003192E0213
:100F82000318C42FC52FC92F7730AE000130AF0030
:100F920001302F02F53003192E02031CD12FD22F5C
:100FA200D62FF430AE000130AF002F08F1002E082A
:100FB200F00086313926863120002C08033EF800E5
:100FC20000302D3DF90029087902031DEA2F280877
:100FD2007802031CED2FEE2FA82FF32F7730AE00EF
:100FE2000130AF002F08F1002E08F00086313926BB
:0E0FF2008631292F0128FA01FB012000A62ECE
:020000040001F9
:08000000FF3FFF3FFF3FFF3F00
:04000E00E43FFF3F8D
:00000001FF
