:040000000128E42FC0
:1007980076340134FA340034F4340134163021004C
:1007A800970008007830210099002200960108007F
:1007B800FE0012001E00FE0BDD2B0034C0302C00A2
:1007C80093005D3092008030910008007D30200059
:1007D8009B009A01911007309C0008001E340234D7
:1007E8001E340234903402349034023480302100B4
:1007F8009E009F019B019C0101309D0008008431EF
:10080800162484318331D62384318331D223843131
:100818008331E22384318331EA2384318331FA231B
:100828008431080022008C018E013F3021008C00A9
:100838001F308E000F3023008E0017308C002400EC
:100848008C012100951722009D0108007108F30012
:100858007008F200F336F20CF336F20C72082C0032
:10086800920070080339F2000530F235FF3E031D8F
:10087800392C72359100080000308B1B0130F200D2
:100888008B1370082300910071089200151315143A
:1008980000000000720C031C8B1303188B17230035
:1008A8001408F1001308F0000800F3007308F200C0
:1008B800F20DF20D21001D087206833972069D00A3
:1008C8001D140630890B662C003221009D149D18DA
:1008D8006E2C6F2C6B2C1C08F1001B08F000080014
:1008E80000308B1B0130F2008B137008230091003D
:1008F8007108920015131516151555309600AA3073
:10090800960095140000000023001511720C031CBA
:100918008B1303188B170800FF340034FF3400349E
:10092800FF340034FF340034FF340034FF34003423
:10093800FF340034FF340034FF340034FF34003413
:10094800FF340034FF340034FF340034FF34003403
:10095800FF340034FF340034A030860000308700B4
:1009680020308400003085002030FD0016001A0079
:10097800FD0BBA2C2000A001A1015708A3005608BE
:10098800A2005308A5005208A4005508A70054085F
:10099800A6005108A9005008A8000030F300013053
:1009A800F4002030F5008531562584310800F50122
:1009B800F601700871040319E22CE32C122DF701DB
:1009C800F70AEF2C0130F035F10D890BE72C0130D7
:1009D800F4007408F707F11FF22CF32CE62C013011
:1009E800F535F60D890BF42C71087302031DFE2CE6
:1009F80070087202031C012D022D072D7008F202E7
:100A08007108F33B75140130F136F00C890B082D91
:100A18000130F702031D112D122DF32C7608F10079
:100A28007508F00008000030F0000130F100843152
:100A38004024853170037104031D232D242D252D99
:100A4800552D0130F0000130F1008431402485310A
:100A580071082000D7007008D6000230F00001307D
:100A6800F10084314024853171082000D3007008DA
:100A7800D2000330F0000130F10084314024853188
:100A880071082000D5007008D4000430F00001304F
:100A9800F10084314024853171082000D1007008AC
:100AA800D0000800F0307305F90007307405FA002B
:100AB80000308B1B0130FB007A087406031D662D7D
:100AC800790873060319692D6A2D6B2DB42D8B13C4
:100AD8007408F1007308F000843174248531230010
:100AE800151315159516FC01730823009100740859
:100AF80092007C357507F6007608860087010108A4
:100B080093007C357507F600760886008701403F1C
:100B1800F700413FF800780894000F307C06031D69
:100B2800962D972D982D951255309600AA3096003F
:100B38009514000000000130F3070030F43D013047
:100B4800F6007608FC0710307C02031CAC2DAD2D96
:100B5800782D230015117B0C031C8B1303188B179E
:100B68000800843103248531853117258531053006
:100B78002000C1000F30C000F130890BC12DC00B1F
:100B8800C12DC10BC12D053084315924853171081F
:100B98002000CB007008CA00063084315924853102
:100BA80071082000CD007008CC0002304B024030A4
:100BB80003194A02031CE12DE22D0F2F02304D02CA
:100BC800403003194C02031CEA2DEB2D0F2FC601F0
:100BD800C701C801C901C201C301053084315924C4
:100BE800853170082000C6077108C73D063084317A
:100BF8005924853170082000C8077108C93D0130A3
:100C0800C2070030C33D4308803AC000803040022C
:100C1800031D102E05304202031C132E142EF12D35
:100C28000530F0000030F10020004708F3004608C6
:100C3800F2008431DB24853171082000D700700868
:100C4800D6000530F0000030F1004908F3004808EC
:100C5800F2008431DB24853171082000D50070084A
:100C6800D400FA30F0000030F10084312A248531B4
:100C780029302000C1009630C0007F30890B422EF9
:100C8800C00B422EC10B422EF430F0000130F100AF
:100C980084312A24853129302000C1009630C000D3
:100CA8007F30890B552EC00B552EC10B552E763033
:100CB800F0000130F10084312A2485312000C6017A
:100CC800C701C801C9017A2E0530843159248531FC
:100CD80071082000CB007008CA00063084315924FE
:100CE800853171082000CD007008CC0002304B021D
:100CF800273003194A020318822E832E682E0230E9
:100D08004D02273003194C0203188B2E8C2E682EA7
:100D180029302000C1009630C0007F30890B922E08
:100D2800C00B922EC10B922E2000C401C5010530C4
:100D380084315924853170082000C6077108C73DE1
:100D4800063084315924853170082000C80771089D
:100D5800C93D0130C4070030C53D4508803AC00090
:100D680080304002031DBA2E05304402031CBD2EFC
:100D7800BE2E9B2E0530F0000030F1002000470801
:100D8800F3004608F2008431DB2485317108200025
:100D9800D3007008D2000530F0000030F100490897
:100DA800F3004808F2008431DB2485317108200003
:100DB800D1007008D000FA30F0000030F100843122
:100DC8002A24853129302000C1009630C0007F30A8
:100DD800890BEC2EC00BEC2EC10BEC2EF430F0007E
:100DE8000130F10084312A24853129302000C100E6
:100DF8009630C0007F30890BFF2EC00BFF2EC10B31
:100E0800FF2E7630F0000130F10084312A2485313C
:100E18008431B024853105302000C1000F30C00076
:100E2800F130890B152FC00B152FC10B152F05306D
:100E380084315924853171082000CB007008CA001C
:100E4800063084315924853171082000CD0070089E
:100E5800CC0052080A3EC0000030533DC1004B0888
:100E68004102031D392F4A08400203183C2F3D2F29
:100E7800842F722F05308431592485317108200060
:100E8800CB007008CA007F30C0000330C1004A0898
:100E98004002CE004B08413BCF0000304F02FA30F1
:100EA80003194E020318592F5A2F5E2FFA30CE001D
:100EB8000030CF0001304F02773003194E02031C77
:100EC800662F672F6B2F7630CE000130CF004F088A
:100ED800F1004E08F00084312A24853120005208A0
:100EE8000A3EC0000030533DC1004B084102031DBB
:100EF8007F2F4A084002031C822F832F3E2FDB2FAF
:100F080050080A3EC0000030513DC1004D08410262
:100F1800031D902F4C0840020318932F942FD72FAE
:100F2800C52F063084315924853171082000CD0041
:100F38007008CC004C086F3ECE00FF304D3DCF000E
:100F480001304F02763003194E020318AC2FAD2F33
:100F5800B12F7630CE000130CF0001304F02F5308E
:100F680003194E02031CB92FBA2FBE2FF430CE003E
:100F78000130CF004F08F1004E08F00084312A24D8
:100F88008531200050080A3EC0000030513DC100A4
:100F98004D084102031DD22F4C084002031CD52FD7
:100FA800D62F952FDB2F7730CE000130CF004F089A
:100FB800F1004E08F00084312A2485311B2F0128C6
:100FC800F23084008330850050308600003087007E
:100FD80008308331DC2387319030840084308500E9
:100FE800A03086000030870020308331DC23873131
:080FF800D801D9012000B52D3C
:020000040001F9
:08000000FF3FFF3FFF3FFF3F00
:04000E00E43FFF3F8D
:00000001FF
